{"_format":"hh-sol-artifact-1","contractName":"SimpleBank","sourceName":"contracts/SimpleBank.sol","abi":[{"inputs":[],"stateMutability":"nonpayable","type":"constructor"},{"anonymous":false,"inputs":[{"indexed":false,"internalType":"address","name":"accountAddress","type":"address"},{"indexed":false,"internalType":"uint256","name":"amount","type":"uint256"}],"name":"LogDepositMade","type":"event"},{"anonymous":false,"inputs":[{"indexed":false,"internalType":"address","name":"accountAddress","type":"address"}],"name":"LogEnrolled","type":"event"},{"anonymous":false,"inputs":[{"indexed":false,"internalType":"address","name":"accountAddress","type":"address"},{"indexed":false,"internalType":"uint256","name":"amount","type":"uint256"},{"indexed":false,"internalType":"uint256","name":"newBalance","type":"uint256"}],"name":"Withdrawal","type":"event"},{"inputs":[],"name":"deposit","outputs":[{"internalType":"uint256","name":"","type":"uint256"}],"stateMutability":"payable","type":"function"},{"inputs":[],"name":"enroll","outputs":[{"internalType":"bool","name":"","type":"bool"}],"stateMutability":"nonpayable","type":"function"},{"inputs":[],"name":"getBalance","outputs":[{"internalType":"uint256","name":"","type":"uint256"}],"stateMutability":"view","type":"function"},{"inputs":[{"internalType":"address","name":"accountAddress","type":"address"}],"name":"getEnroll","outputs":[{"internalType":"bool","name":"","type":"bool"}],"stateMutability":"view","type":"function"},{"inputs":[],"name":"owner","outputs":[{"internalType":"address","name":"","type":"address"}],"stateMutability":"view","type":"function"},{"inputs":[{"internalType":"uint256","name":"withdrawAmount","type":"uint256"}],"name":"withdraw","outputs":[{"internalType":"uint256","name":"","type":"uint256"}],"stateMutability":"payable","type":"function"},{"inputs":[],"name":"withdrawAll","outputs":[{"internalType":"bool","name":"","type":"bool"}],"stateMutability":"nonpayable","type":"function"},{"stateMutability":"payable","type":"receive"}],"bytecode":"0x608060405234801561001057600080fd5b50600160008190555033600360006101000a81548173ffffffffffffffffffffffffffffffffffffffff021916908373ffffffffffffffffffffffffffffffffffffffff160217905550610e05806100696000396000f3fe6080604052600436106100745760003560e01c8063853828b61161004e578063853828b6146101215780638da5cb5b1461014c578063d0e30db014610177578063e65f2a7e1461019557610084565b806312065fe0146100895780632e1a7d4d146100b4578063807b596c146100e457610084565b36610084576100816101c0565b50005b600080fd5b34801561009557600080fd5b5061009e61032c565b6040516100ab91906108df565b60405180910390f35b6100ce60048036038101906100c9919061092b565b6103ff565b6040516100db91906108df565b60405180910390f35b3480156100f057600080fd5b5061010b600480360381019061010691906109b6565b6106d3565b60405161011891906109fe565b60405180910390f35b34801561012d57600080fd5b50610136610729565b60405161014391906109fe565b60405180910390f35b34801561015857600080fd5b5061016161077b565b60405161016e9190610a28565b60405180910390f35b61017f6101c0565b60405161018c91906108df565b60405180910390f35b3480156101a157600080fd5b506101aa6107a1565b6040516101b791906109fe565b60405180910390f35b6000600260003373ffffffffffffffffffffffffffffffffffffffff1673ffffffffffffffffffffffffffffffffffffffff16815260200190815260200160002060009054906101000a900460ff1661024e576040517f08c379a000000000000000000000000000000000000000000000000000000000815260040161024590610aa0565b60405180910390fd5b600034905060008111610296576040517f08c379a000000000000000000000000000000000000000000000000000000000815260040161028d90610b0c565b60405180910390fd5b80600160003373ffffffffffffffffffffffffffffffffffffffff1673ffffffffffffffffffffffffffffffffffffffff16815260200190815260200160002060008282546102e59190610b5b565b925050819055507fa8126f7572bb1fdeae5b5aa9ec126438b91f658a07873f009d041ae690f3a193338260405161031d929190610bb1565b60405180910390a18091505090565b6000600260003373ffffffffffffffffffffffffffffffffffffffff1673ffffffffffffffffffffffffffffffffffffffff16815260200190815260200160002060009054906101000a900460ff166103ba576040517f08c379a00000000000000000000000000000000000000000000000000000000081526004016103b190610aa0565b60405180910390fd5b600160003373ffffffffffffffffffffffffffffffffffffffff1673ffffffffffffffffffffffffffffffffffffffff16815260200190815260200160002054905090565b6000600260003373ffffffffffffffffffffffffffffffffffffffff1673ffffffffffffffffffffffffffffffffffffffff16815260200190815260200160002060009054906101000a900460ff1661048d576040517f08c379a000000000000000000000000000000000000000000000000000000000815260040161048490610aa0565b60405180910390fd5b81600160003373ffffffffffffffffffffffffffffffffffffffff1673ffffffffffffffffffffffffffffffffffffffff16815260200190815260200160002054101561050f576040517f08c379a000000000000000000000000000000000000000000000000000000000815260040161050690610c26565b60405180910390fd5b81600160003373ffffffffffffffffffffffffffffffffffffffff1673ffffffffffffffffffffffffffffffffffffffff168152602001908152602001600020600082825461055e9190610c46565b9250508190555060003373ffffffffffffffffffffffffffffffffffffffff168360405161058b90610cab565b60006040518083038185875af1925050503d80600081146105c8576040519150601f19603f3d011682016040523d82523d6000602084013e6105cd565b606091505b5050905080610611576040517f08c379a000000000000000000000000000000000000000000000000000000000815260040161060890610d0c565b60405180910390fd5b7fdf273cb619d95419a9cd0ec88123a0538c85064229baa6363788f743fff90deb3384600160003373ffffffffffffffffffffffffffffffffffffffff1673ffffffffffffffffffffffffffffffffffffffff1681526020019081526020016000205460405161068393929190610d2c565b60405180910390a1600160003373ffffffffffffffffffffffffffffffffffffffff1673ffffffffffffffffffffffffffffffffffffffff16815260200190815260200160002054915050919050565b6000600260008373ffffffffffffffffffffffffffffffffffffffff1673ffffffffffffffffffffffffffffffffffffffff16815260200190815260200160002060009054906101000a900460ff169050919050565b6000610773600160003373ffffffffffffffffffffffffffffffffffffffff1673ffffffffffffffffffffffffffffffffffffffff168152602001908152602001600020546103ff565b506001905090565b600360009054906101000a900473ffffffffffffffffffffffffffffffffffffffff1681565b6000600260003373ffffffffffffffffffffffffffffffffffffffff1673ffffffffffffffffffffffffffffffffffffffff16815260200190815260200160002060009054906101000a900460ff1615610830576040517f08c379a000000000000000000000000000000000000000000000000000000000815260040161082790610daf565b60405180910390fd5b6001600260003373ffffffffffffffffffffffffffffffffffffffff1673ffffffffffffffffffffffffffffffffffffffff16815260200190815260200160002060006101000a81548160ff0219169083151502179055507f990c442e6adb818b8fa7db3cf1023decd07f7b66e5306928c7ed527d974192bb336040516108b79190610a28565b60405180910390a16001905090565b6000819050919050565b6108d9816108c6565b82525050565b60006020820190506108f460008301846108d0565b92915050565b600080fd5b610908816108c6565b811461091357600080fd5b50565b600081359050610925816108ff565b92915050565b600060208284031215610941576109406108fa565b5b600061094f84828501610916565b91505092915050565b600073ffffffffffffffffffffffffffffffffffffffff82169050919050565b600061098382610958565b9050919050565b61099381610978565b811461099e57600080fd5b50565b6000813590506109b08161098a565b92915050565b6000602082840312156109cc576109cb6108fa565b5b60006109da848285016109a1565b91505092915050565b60008115159050919050565b6109f8816109e3565b82525050565b6000602082019050610a1360008301846109ef565b92915050565b610a2281610978565b82525050565b6000602082019050610a3d6000830184610a19565b92915050565b600082825260208201905092915050565b7f55736572206973206e6f7420656e726f6c6c6564000000000000000000000000600082015250565b6000610a8a601483610a43565b9150610a9582610a54565b602082019050919050565b60006020820190508181036000830152610ab981610a7d565b9050919050565b7f596f75206861766520746f206465706f736974206d6f7265207468616e203000600082015250565b6000610af6601f83610a43565b9150610b0182610ac0565b602082019050919050565b60006020820190508181036000830152610b2581610ae9565b9050919050565b7f4e487b7100000000000000000000000000000000000000000000000000000000600052601160045260246000fd5b6000610b66826108c6565b9150610b71836108c6565b9250827fffffffffffffffffffffffffffffffffffffffffffffffffffffffffffffffff03821115610ba657610ba5610b2c565b5b828201905092915050565b6000604082019050610bc66000830185610a19565b610bd360208301846108d0565b9392505050565b7f596f7520646f6e2774206861766520656e6f7567682062616c616e6365000000600082015250565b6000610c10601d83610a43565b9150610c1b82610bda565b602082019050919050565b60006020820190508181036000830152610c3f81610c03565b9050919050565b6000610c51826108c6565b9150610c5c836108c6565b925082821015610c6f57610c6e610b2c565b5b828203905092915050565b600081905092915050565b50565b6000610c95600083610c7a565b9150610ca082610c85565b600082019050919050565b6000610cb682610c88565b9150819050919050565b7f4661696c656420746f2073656e64204574686572000000000000000000000000600082015250565b6000610cf6601483610a43565b9150610d0182610cc0565b602082019050919050565b60006020820190508181036000830152610d2581610ce9565b9050919050565b6000606082019050610d416000830186610a19565b610d4e60208301856108d0565b610d5b60408301846108d0565b949350505050565b7f5573657220616c726561647920656e726f6c6c65640000000000000000000000600082015250565b6000610d99601583610a43565b9150610da482610d63565b602082019050919050565b60006020820190508181036000830152610dc881610d8c565b905091905056fea2646970667358221220e7f9d907552ff7c8b78c7bf13aa3e8f6d415bbc24cc7604e857b71bd81408e8664736f6c63430008090033","linkReferences":{},"deployedLinkReferences":{}}